:040000006F304075A8
:100004000000000000000000A000002036040020D2
:10001400A9BDF9F3FC01002000000000000000006D
:10002400FC010020A00000200000000000000000EF
:10003400A000002000000000A0000020000000003C
:10004400A0000020B6050020A0000020A000002091
:10005400A0000020EC040020A0000020000000000C
:10006400A0000020A0000020A0000020A00000208C
:1000740098050020A0000020A0000020A00000207F
:10008400A0000020A0000020A0000020A00000206C
:10009400A0000020A0000020A0000020A00000205C
:1000A40001A0B7170040984B41111367070198CB83
:1000B400982B1377E70F98AB1307800873370780E3
:1000C400137787083AC60F100000130770052380C2
:1000D400E704130780FA2380E7040F100000B847F1
:1000E400B70600069506558FB8C703C7B70413773C
:1000F400F70DA385E704B82713672701B8A71307EB
:1001040050149AA7372700408346578093F6F60E7B
:10011400A302D7808946A303D78003C7E7041377D4
:10012400C70F136717002387E70403C7F702136792
:100134002700A387E702982B1367170098AB238047
:100144000704B247F3A707800F1000004101828023
:10015400EFF03FF513050020970500009385450A4D
:10016400173600001306065F63FAC50083220500F4
:1001740023A0550011059105E3EAC5FE174502E0E9
:100184001305850F973500009385C55C138641A739
:1001940063FAC5008322050023A0550011059105CB
:1001A400E3EAC5FE138581A797650000938505D50D
:1001B4006377B500232005001105E36DB5FE9302B6
:1001C4005002739002BC8D427390428085427390BA
:1001D40012BC93028008739002309702000093824D
:1001E40062E293E2320073905230978200E093828D
:0C01F400629B73901234730020300000F6
:100200009305000273A04580824573901534924097
:100210002242B2424243D2436244F24402559255D2
:100220002256B2564257D2576258F258064996495A
:10023000264AB64A464BD64B664CF64C065D965D52
:10024000265EB65E465FD65F0961730020304111BD
:10025000B7170040985F3AC6945F3247E39CE6FECA
:10026000324541018280B7F70700DC53411123ACCE
:10027000F1A6B7170040984B1367070198CB982B4E
:100280001377E70F98AB130780087337078013774E
:1002900087083AC60F100000130770052380E70493
:1002A000130780FA2380E7040F1000001307000CE7
:1002B0006315E5029A271367070C9AA7B717004042
:1002C000982B1367170098AB23800704B247F3A756
:1002D00007800F10000041018280B8279376052027
:1002E000ADCA118B29E303C7E70403C6E7041377FC
:1002F000F70F136636002387C704B027136646003E
:10030000B0A792278E273346060893E5050C8EA7E3
:10031000A5470100FD1793F7F70FE5FFB71700405A
:1003200092A72387E70493770510DDC337170040B2
:100330003C2793E707013CA79377F50199EFB7278F
:10034000004003C7578013670701A382E7801D475A
:100350000DA013672700B8A7F9B725476366F70410
:10036000B727004003C757801377F70EA382E780B3
:100370000547A383E78033450508B7170040136797
:10038000050C9AA78AA7B5CE03C7570483C657049E
:10039000418B858A558F1DF3B82B418B05D3B82728
:1003A0001377D70FB8A719BF9377050199EBB72734
:1003B000004003C757801377F70EA382E7800947F1
:1003C0004DBFB727004003C757801377F70EB5BF5F
:1003D0009377850181EFB727004003C757801377D4
:1003E000F70EA382E7801307100561B7B727004017
:1003F00003C757801377F70EA382E78013077005B2
:100400008DBFB8271377B70F71BF37E700E01C43E4
:100410005443A183E206D58F1CC1FD572320F71852
:100420002322F718828013178500B7E700E023A086
:10043000E710618123A2A710828041118146014605
:1004400081451145EF10F03E13078008F337078010
:1004500093F787083EC40F100000B717004013063B
:1004600070052380C704930680FA2380D7040F10F9
:100470000000FD55CEB723800704A245F3A50580F3
:100480000F10000073370780137787083AC60F10E4
:1004900000002380C7042380D7040F10000003C787
:1004A0006704136717002383E70423800704B24718
:1004B000F3A707800F10000001A09307E0043305A5
:1004C000F50295473355F50201007D1575FD8280D3
:1004D000411122C406C62A841305803E7D14F13FD3
:1004E0003344040875F8B240224441018280000080
:1004F000197106C212C416C61AC81ECA22CC26CE4C
:100500002AD02ED232D436D63AD83EDA42DC46DE73
:10051000CAC0CEC2D2C4D6C6DAC8DECAE2CCE6CEE3
:10052000EAD0EED2F2D4F6D6FAD8FEDA9385C1A795
:100530008841E700050092402242B2424243D24342
:100540006244F244025592552256B2564257D2574F
:100550006258F25806499649264AB64A464BD64B47
:10056000664CF64C065D965D265EB65E465FD65FCF
:100570000961730020304111B7170040985F3AC6F7
:10058000945F3247E39CE6FE324541018280B7E743
:1005900000E03707001023A0E7208280B717004053
:1005A000130700032388E702854723A2F1A87300FD
:1005B0002030411106C6D52BFDBF7300203023AC7F
:1005C00005FE1C4199E30CC182803E8783A787FF0B
:1005D000EDFF232CB7FE8280411126C2B7E400E074
:1005E0004AC003A90400B707200006C622C4337915
:1005F000F90023A0F4180F10000009E523A024112E
:10060000014535A09565938505D0C98D2A842105BE
:10061000B3C5050833450508EF10407A65D1FD578D
:100620002320050042A17CA123A024112105B24072
:10063000224492440249410182804111B7E700E01F
:100640004AC003A9070026C23707200006C622C4F5
:10065000AA843379E90023A0E7180F10000083A7CC
:10066000C1B20144014685E301C8A2851385C1B228
:10067000977000E0E7808059A1652685978000E0AB
:10068000E78020AD0DA003C7E7FF6319970205CCF3
:10069000A2851385C1B2977000E0E7802057A1655D
:1006A0002685EF10306AB24022852244B7E700E089
:1006B00023A02711924402494101828011E03E8625
:1006C00083A787FF4DB73E84E5BF37E700E01C43B3
:1006D000B70620002320D718F58F0F10000019C18E
:1006E00091C111E637E700E02320F71082802E96B3
:1006F0000F70B650D5BF37E700E01C43B7062000A7
:100700002320D718F58F0F10000019C1014785E18C
:1007100037E700E02320F7108280B386E50003A8C6
:100720000600B306E5007D1623A00601110775F645
:10073000C5B737E700E01C43B70620002320D718D1
:10074000F58F0F10000001C53307C50011E637E72C
:1007500000E02320F71082800505A30FB5FEE31DFE
:10076000E5FEF5B7B7E600E09C42370620002A8791
:10077000F18F23A0C6180F1000000145B306A70093
:100780008386060091E637E700E02320F710828099
:100790000505EDB70111B7E700E026CA84434AC852
:1007A0003707200006CE22CC2A892E86F98C23A07A
:1007B000E7180F1000009305F00432C63345060811
:1007C000EF10C05F2A8401C53246CA85FD3DF24064
:1007D00022856244B7E700E023A097104249D24443
:1007E0000561828037E700E01C43B7062000232024
:1007F000D718F58F0F10000001C599C1014711EA04
:1008000037E700E02320F710054582800507E3095C
:10081000E6FE3308E500B386E500034808009422AD
:10082000E306D8FE37E700E02320F7100145828079
:1008300037E700E01C43B70620002320D718F58FC8
:100840000F1000001307F6FFBA952A966317C5002C
:1008500037E700E02320F71082809821FD15050579
:10086000A30FE5FEE5B737E700E01C43B70620001D
:100870002320D718F58F0F10000001C53307C500DE
:1008800019E637E700E02320F710014582801421A4
:100890000505E398B6FEE31CE5FE37E700E02320FC
:1008A000F71005458280797126D2938441B422D411
:1008B000804006D64AD04ECE52CC56CA5AC85EC6E2
:1008C00062C44DC437C9C901814B138BC1B313092D
:1008D000F937175A0000130AEA00975A0000938A62
:1008E000EAFD975900009389E9043E2099EF5C44A2
:1008F000639A0B009CC0032CC4002285EF10605843
:10090000628489A823A6FB00FDB783270B0082978A
:100910001C443307F5406376F50003A789001D8F5B
:100920002A976368E9062E200820EF10B0415C404A
:100930005844A9CB0C441756000003262600AE9756
:10094000BE8663E4B70063E4C700B386C74014C43F
:10095000A28B3A8459F817570000032727F78947D5
:1009600063E6E7009757000023A207F6B25022542F
:1009700092540259F249624AD24A424BB24B224C3B
:100980004561828063940B0098C0B5B723A6EB0045
:100990009DB703274A021DCB63EDA7023385A7400D
:1009A0001C2099EF03479A0183A689006117B307BA
:1009B000A7003E8563E4E70063E4D7003385D740B2
:1009C00083A70A016374F50023A8AA00A28B404400
:1009D00051B703A78900BA97D1B7011126CA06CE2D
:1009E00097540000938404F522CC4AC84EC652C4E2
:1009F0009C288844D9CFB7E700E003A90700370750
:100A0000200023A0E7183379E9000F10000003C786
:100A100041B319CB23A02711F2406244D24442498A
:100A2000B249224A05618280175700001307C72088
:100A30008357070AA1CB9C440324C7096304F40429
:100A400097590000938989E703A709012285630B61
:100A5000F702138AC1B383270A0082976368A40C44
:100A600083270A00098C829783A70901984433548D
:100A7000F40AB307A4003E8563E4870063E4E7005B
:100A80003385E740B7E700E023A027119C44639B30
:100A9000A70217540000130464E2184883A7C1B3E7
:100AA0006319A70882979444374736FE130707C88F
:100AB0003697B307A7003E8563E4E70063E4D700F9
:100AC0003385D74017540000130484395C5C89CB0C
:100AD00083A681C39C463707CDFF7D17F98F9CC63F
:100AE00011E1884485475CD09757000083A7C7E190
:100AF000829715E15C5C99CF5C5089CF978001E0CB
:100B0000E78040FB978001E0E78060B197570000E5
:100B100023AA0736493B5C5CE38007F003A781C347
:100B20001C47B7063300D58F1CC7FDB59C443E94C7
:100B300005BF829714489844B387A6003E8563E4B6
:100B4000D700E3E1E7F83385E740ADBF23A8A1B2C2
:100B500001C58547238AF1B28280AA8799E5175794
:100B60000000034727DE09C7D5B711476369B700FF
:100B7000175700001307C7DAB3C5E5209CC1828070
:100B800083A701B381CF411106C6829783C741B3C2
:100B900099E323A801B2B2404101828083C741B3E7
:100BA00081E723A801B282808280411122C426C23B
:100BB00006C64AC0975400009384842A83C734022F
:100BC000175400001304C4D5B9C31754000013040C
:100BD000E4CE138981B4032709001C201430014698
:100BE000B3A5E7208E21B5C911C21CA00820636DF2
:100BF000D50697570000238307CC83A7C1B3D5E759
:100C0000B2402244924402494101828082971C40B2
:100C1000F5FF9757000083C7E7D285E3DC48858B53
:100C200089CFD84C9947631EF7009757000023A33C
:100C30000724EF00D05B5C4482971C44D9D782978D
:100C400069B7D84C9D47E31AF7FE9757000023A3D6
:100C50000722EF00D0591C48C5B7850793F7F70F57
:100C60000546E3EFD7F651B73327E5200E232310CF
:100C70000700239B01B283A701B4B347F5209C432F
:100C800082971C208326090003D761B33377E540A0
:100C9000B3A6D7209222518F9AA299C385071CA090
:100CA00018201C30E36EF7F4A9B79757000083A70C
:100CB000E7C81CC8CD3E83C73402B9F383C714020A
:100CC00099CBDC4C89EB97570000A38B071A9780D0
:100CD00001E0E78000AD9757000083A7E7C28DD3FE
:100CE0001C4899DF183083260900814763C7E70253
:100CF000D84C9147E3E6E7F09757000083C707F227
:100D0000918BE39F07EE83C741B3E39B07EE224439
:100D1000B240924402494101C9B133A6D720122200
:100D2000E31006EE8507D9B7B7C700401387C72081
:100D300014431396264910C30100010093878726A8
:100D400017550000032545B99C436A0514C393C792
:100D5000F7FF99835D8D828023A8A1B48280411121
:100D600022C4175400001304A40F1C4426C206C654
:100D7000858B9754000083A4A4F191EBEF20B00879
:100D80002244B2402685924441016F103015D82488
:100D90009757000023AA070C8947E301F7FE014695
:100DA000930550020145EF00D0748145174501E0DD
:100DB0001305854A5D33014681450545EF00105A0C
:100DC0005C44858BC5DFB24022449244410182805D
:100DD0009757000083A787EF639B0716011122CC6A
:100DE0002A84094506CE26CA4AC84EC6EF205009B5
:100DF000938981C203A6090093078007138981C1E3
:100E00007CD2238A01B283270900938481C3B7056A
:100E10003300D8572285719B13671700D8D79843A2
:100E20001377F7CF98C398431377F7CF136707204B
:100E300098C398401447CD8E14C7B7060300938615
:100E4000862534CA5457F59A54D79843742013779B
:100E500007F893F6F607558F98C3EF10301A83A65C
:100E60000900370500827D15DC4293E71700DCC2DC
:100E700003260900030744065C569375F703E6054D
:100E8000E98FCD8F5CD69305A0039C4063D5E50820
:100E9000F84FB70500074D8FF8CFB7C7898E9387F6
:100EA00067ED1CC6B7575500938757555CC28347FB
:100EB000640683440406DD8C894717570000232FFE
:100EC000F7FA9757000023A307FA3C44BCDE975774
:100ED000000083C727A799C7FC52FDFF9757000062
:100EE00023A407F858249D478145172500001305C2
:100EF00045CE6306F70017050000130585E6B139F6
:100F000050346244F2404249B249A685D244014578
:100F100005616F00B0449305200263DAE500F84FE5
:100F2000B70500F9FD156D8FB7050005ADB7B7051D
:100F300000F96945FD156357E500F84F6D8FB7055A
:100F4000000391BFF84F6D8F13178729B1B78280C7
:100F500097570000938747CEA84F05471425639005
:100F6000E60203C787069147631AF700011106CE10
:100F70002AC6EF10A0723245F240056191BD828011
:100F800083278511E5CB411122C406C65825834528
:100F9000E5049437D2272A841377C70F1395466048
:100FA00063F7C50663510506882793F6F60794B7DD
:100FB0000546936627006314C5009366170054A482
:100FC000D8430907D8C3032504114CB82E86CC4357
:100FD0000905EFF08FEF832784115438D8433697F3
:100FE000D8C3DA27158FDAA789473CBC03476403C7
:100FF0009757000083C727906369F706B2402244E1
:101000000145410182801367170058A46DBF937694
:10101000F60F63550502882785451366270063147C
:10102000B5001366170050A454B8A3840700854781
:101030003CBC832784119C43D5FBC9B713671700B9
:1010400058A454B8A384070003250411CC43090510
:10105000EFF0AFE7832784115438D8433697D8C3CD
:10106000DA27158FDAA78D47E1B75C2493E70701EC
:101070005CA469B705458280411183A7C1C022C421
:1010800006C6858B2A84CDEB78298357C51763E57F
:10109000E70A4165130525F5975001E0E780A07147
:1010A00041CD3C253EA583270412ADE32320A412A5
:1010B0002322A41285472311F404232005007C2851
:1010C00054415EA5583418A5054718B51385170275
:1010D00017570000032787DC15811C437D15137506
:1010E000F50F9CC25C43DCC21C479CC65C47DCC657
:1010F0001C4B9CCA5C4BDCCA1C4F9CCE5C4FDCCEAC
:101100000DC19386060213070702C1BF832744124D
:1011100088C3835724042322A4128507B3C7070872
:1011200059BF17570000130727B11E2785071EA7B1
:10113000B2402244410182805C2423090400054519
:1011400093C747005CA4EDB7142D854763ECD70A1D
:101150001C3D2A870145CDEB5C2713F507013C2B8D
:1011600099CB834667039747000083C7D77863EC22
:10117000F60001E5828049E582808357E71803572E
:101180002719BA9721A08357E71875F90145ADCF04
:101190009387C712174500000355857AB3B5A70298
:1011A00037460F00411113060624814622C426C289
:1011B00006C67D543385A70297E001E0E7806025ED
:1011C0009744000083C49473AA949757000083A7A0
:1011D00027AF03A707099C433354E40AFDFB83A709
:1011E000C1B3829781476364A400B307A440B240AF
:1011F000224433B597001345150092444101828083
:101200008147B5BF01458280828003A781C23C5BD4
:10121000FDFF01000100828039C901116C0022CC60
:1012200006CE2A84EF20000C15C9FD57630DF50288
:10123000B2479745000083C5756C63EBB700034563
:1012400094026244F240B385B74005616F10E03309
:10125000174700000327876EBA97D5B76244F2405C
:1012600005616F10B04DF24062440561828082805A
:10127000797152CC175A0000130A0A9C26D2832493
:101280008A0806D622D44AD04ECEC5C89757000049
:10129000938707BDD44F15476384E604DC532A893E
:1012A00089CF978001E0E780E080977001E0E780D8
:1012B00000379757000023A707BCFD596C0026850F
:1012C000EF2040021DE517250000130565C7EFF06C
:1012D000FF8783A781C23707100098C70547B8DB8F
:1012E0000D45B250225492540259F249624A456166
:1012F0008280637435013244AA898440E1F0FD574D
:101300001305F00FE38FF9FC914763F18702930710
:10131000B4FF2320F900232EFA0899E7974700002D
:1013200083A7C7612320F900014565BF97470000E7
:1013300083A7C760ED17A297E9BF09455DB779712B
:1013400026D206D622D44AD04ECE52CC56CA5AC83D
:101350005EC68347550303447513AA843E941374F1
:10136000F40F9307400263F687001304B4FD13746F
:10137000F40F03A9841383A9C413A38B84122286B8
:101380004A85CE8597E001E0E780A0C8058915E58C
:1013900003CBD412014A814A337B6403930B50027E
:1013A00052864A85CE8597E001E0E78080C60589B0
:1013B0000DC563916A031374FA0F238B8412B25024
:1013C000225492540259F249624AD24A424BB24BD9
:1013D00045618280850A939A4A60050AE3127AFD84
:1013E000E9BF8327850903560504797193D6070160
:1013F000BD8EB3C60608358E93575640898B13575A
:1014000076485D8F93573640918B5D8F935716408A
:10141000A18B5D8F93171600C18B5D8F93173600DC
:1014200093F707025D8F9317560093F707045D8FBC
:101430009317760093F7F70F22D45D8F2A84935782
:10144000D6001355B6001189898B93558600C98F34
:101450001355F6002582C98F218AD18F1396150066
:10146000418AD18F1396350013760602D18F1396D9
:10147000550013760604D18F139675001376F60F78
:10148000D18FA207C5455D8F3307B70226D24AD058
:101490004ECE032984138329C4135AC806D652CCCE
:1014A00056CA36973347070813565740098A935749
:1014B0007748D18F13563740118AD18F1356174072
:1014C000218AD18F13161700418AD18F1316370046
:1014D00013760602D18F1316570013760604D18FA8
:1014E000131677001376F60FD18F1358B7001356E3
:1014F000D70013784800098A135587003366060120
:101500001358F700258333660601218B518F13167C
:101510001500418A518F1316350013760602518F3C
:101520001316550013760604518F131675001376A3
:10153000F60F518F2207D98FB387B7025EC6B697D1
:10154000B3C7070813D55740098913D77748498F80
:1015500013D537401189498F13D517402189498FF9
:10156000139517004189498F1395370013750502AC
:10157000498F1395570013750504498F139577000C
:101580001375F50F598D13D8B70013D7D7001378FB
:101590004800098B13D687003367070113D8F7007B
:1015A000A58333670701A18BD98F13171600418BD1
:1015B000D98F1317360013770702D98F13175600E8
:1015C000137707041E06D98F1376F60FD18FA20763
:1015D0003367F5003307B702130650024A85CE85FC
:1015E0003697B98EB3C4060833F6C402137BF60FE0
:1015F00097E001E0E780E0A1058905E9834AD4127C
:10160000014A930B5002B38A9A02814493DA0A0189
:1016100026864A85CE8597E001E0E780809F058990
:101620000DC563914A0313FBF40F230B6413B250EF
:10163000225492540259F249624AD24A424BB24B66
:1016400045618280050A137AFA0F8504E39274FDDE
:10165000E9BF797122D426D22E84AA844146970507
:1016600002E09385A5900A8506D6972000E0E780E2
:1016700000134146970502E09385458F080897209F
:1016800000E0E780C0113C3010088A85DC875C20D0
:1016900026855C875C30DC86977001E0E78080D02F
:1016A0000347F1011C200145631EF7000347E101D8
:1016B0001C3001456318F7000345D1013C201D8D06
:1016C00013351500B25022549254456182800111A5
:1016D00022CC26CA4AC84EC606CEAA8417440000A9
:1016E0000324046113092500854905C09C30383066
:1016F000858B6304F700405CCDBF19469305440019
:101700004A85EFF02F8EE31835FFF24022856244C0
:10171000D2444249B24905618280411122C426C2A5
:101720004AC006C6174400000324845C93042500C5
:10173000054901E8B2402285224492440249410110
:101740008280A6851305A4022937E30525FF405CA6
:10175000CDB7011122CC26CA06CE2AC42EC6174404
:10176000000003246458854419E001450DA09C84C1
:101770001830858B6304F7000044FDB719469305C4
:10178000A10013052400EFF0EF85E31795FEF2406A
:101790006244D24405618280EFF08FBE7300000086
:1017A00000000000938241B3038302002380020003
:1017B000630F0300F32510342EC0970500009385B6
:1017C000E5FD73901534EF00405B7300203086DC3C
:1017D000EF00A05AE6508280000041114AC01389F0
:1017E00081C10327090026C206C61C5F22C4938458
:1017F00041C193D76748B5CF930700061CDF174454
:1018000000001304E465184C930700086317F70001
:101810009C409C4393F707041CCC1C4093F707049F
:1018200089CB83A7C1B3829748D81C4093F7F7FBB5
:101830001CC01C4093F7070289CF1C4003A781C23C
:10184000B706080093F7F7FD1CC05C5414C7860761
:101850007CD71C4893F7070489EF85475CC8370796
:10186000020083A781C298C71307000C18C8185438
:10187000F8D383270900985F1357474811CF985F23
:101880001367070198DF83A781C223A20706854754
:1018900017470000232EF75C9C40D8431357174886
:1018A00019C7D843759BD8C3D843799BD8C3B240D6
:1018B000224492440249410182800537730020305E
:1018C000974700009387C7593707040088DB698F63
:1018D00001CF03A781C2FD5634D7974600009386F7
:1018E000E6FDD84E0507D8CE1377850019CF984767
:1018F00083A681C11367170098C71307000898CB08
:10190000D856719B13671700D8D61377150001CFEF
:10191000D84383A681C113671700D8C3D856719BDB
:1019200013671700D8D61377650019CF13774500D2
:1019300059C398431367170098C383A681C1D8562B
:10194000719B13671700D8D64167698F0DC39746FF
:10195000000083C6E634C18A174700001307C72D6D
:10196000A5C28346870693E606022304D7063707F7
:101970000200698F01CF984B1377070819C30547F9
:1019800098CB83A781C23707020098C7B707080022
:101990007D8D0DC11747000003479730058B974792
:1019A0000000938767291DCB03C79706136727009D
:1019B000A384E7068280D84713671700D8C7B5BF4E
:1019C000834687060946BD8A6388C6008346870624
:1019D0000D46BD8AE39DC6F8914641BF03C79706F1
:1019E000118B69DB03C7970613678700D1B783A6FE
:1019F00081C2174700001307A7461C43858B91E758
:101A00005C43858B99E3FC52EDFB9747000023A3D1
:101A100007468280938681C12A8788421C5D93D7BE
:101A20005748D1E781C51C59BD839CA115C69C426E
:101A3000945BC60693D7660163D6060093E707C09A
:101A4000B3C707088316060093975760B9C6BE96BA
:101A50008947B3C6F60216A283A781C2BC4B0833DE
:101A600093D757488DCF29C59746000083A6C64017
:101A700093F606049307950009459DCABA979C23DF
:101A80000547194593F6F7066394E60201459397D7
:101A9000476063DF0700394582801EA275BF2A9721
:101AA00048331375F5077D153335A0008280054551
:101AB000828083A701C299CB944BD04B9842518F1F
:101AC00098C294439C479842D98F9CC2138681C286
:101AD0000548184283A681C197470000938747387D
:101AE0006312050503A806001368080823A0060171
:101AF00083C62702B3C5D52054479385A50C1398F8
:101B00001649232607010F1000001842370602006D
:101B1000860510C71306000890CB6CD354C7238EDC
:101B2000A1C0828088421375F5F788C283C6270258
:101B3000B3E5D52054479385E50E1395164948C75C
:101B40000F100000184237060200860510C7130662
:101B5000000890CB6CD354C70945D1B7411122C4BA
:101B6000AA8706C626C22E85138481C2B285DDE708
:101B70001C40F8537DFF3707020098C797470000C5
:101B800023A4072E974400009384C4D5DC5085C756
:101B9000B7E700E03707200023A0E728B7F700E009
:101BA000938707D0984B6D9B98CB984B136787030F
:101BB00098CB73005010F53D83A781C1984313174C
:101BC000772998C3D857719BD8D79747000023A38C
:101BD000072A9747000023A707281C40094798C3F6
:101BE000DC5099CB37F700E0832707D193E78700D4
:101BF0002328F7D073005010144017470000130734
:101C000027261C47858B91E75C47858B99E3FC521F
:101C1000EDFBB24022449244410182800D47639E15
:101C2000E7049747000023A107249747000023AF4C
:101C30000722974400009384E4CADC5085C7B7E7C5
:101C400000E03707200023A0E728B7F700E09387DC
:101C500007D0984B6D9B98CB984B1367870398CB15
:101C600073005010B93583A781C1984313177729A2
:101C700098C3D857719BD8D7A5B70547E39EE7F619
:101C800097460000938606C6DC5285C7B7E700E09A
:101C90003707200023A0E728B7F700E0938707D095
:101CA000984B6D9B98CB984B1367870398CB730029
:101CB00050101C40D04713171649D8C70F1000000A
:101CC0001C403707020098C713070008974500001B
:101CD00023A0E51A03A781C118431357774819C7F2
:101CE0001307E018F8D3D0C7DC52E5BD1307E01A9C
:101CF000D5BF83A701C289CFD44303A887009842E8
:101D00003367070198C2D447DC4B9842D98F9CC2F5
:101D1000054783A781C19505631EE50298431367B4
:101D2000070898C3984F137707C01367A71398CF76
:101D300013078007B8BB939735009387C7031747EE
:101D400000001307E7111CD7238EA1C019C2060695
:101D500010D78280984309451377F7F798C3984FB7
:101D6000137707C01367271398CF1307F007B8BB83
:101D7000939745009387C703D9B783A781C2884744
:101D8000D847798D11C588C783A741C291C382877F
:101D90008280896703A781C2938707F47CD383A6D7
:101DA00081C383A7060993D7A74991C783A70609CB
:101DB00093D7974999E37C53EDF782804111B7E7B8
:101DC00000E022C480433707200006C6798C23A098
:101DD000E7180F10000011C199E5B7E700E023A054
:101DE0008710014549A80D05334505081307400331
:101DF0007199B34705086362A70203A581CC83A646
:101E000001CC639FA600174700000327A7B071D736
:101E1000C207DD8D05450297C9B703A541CCC5B7FB
:101E20007A2131EF5A21636CF704B306F740214859
:101E300017460000130686A86375D802832805009C
:101E400003586600938687001D8FAA966117DAA251
:101E500023A016012393060014C15EA1130788FF77
:101E60007AA27A226EA12105B307F7407EA2B7E7D6
:101E700000E023A08710B240224441018280084143
:101E800049B7B7E700E08C433707200023A0E718E5
:101E9000F98D0F10000001E523A0B710828003A385
:101EA00081CC83A801CC9A87814663F8170903A8DF
:101EB00007006367F5086365A80813878700636EEA
:101EC000E506F223216705076317E6001386B1BE16
:101ED0001822050718A2174500001305259ED223D6
:101EE0007A21239307003297334707087AA1638347
:101EF000670203A341CC630FF30003D36600631BA7
:101F00000300DE2223A0060121073E962106D2A26D
:101F10007AA1B68798436302170383A641CC630E68
:101F2000D700762399EAD62352231843A106B29606
:101F3000D6A398C37E21A1077EA1B7E700E0A9BF81
:101F4000BE86C2879DB7AA8703A781CC03A601CC12
:101F5000B305B5406314E6003E8529A893068700C3
:101F60001843E3E9D7FEE3F7E7FE2E85E3E4D5FE69
:101F7000E3F2E5FE82802303048015472303E48017
:101F800001002302A480828083076480E3CE07FEE1
:101F900023030480828083076480E3CE07FE034529
:101FA0004480828083076480E3CE07FE2302A480FE
:101FB0008280411126C44AC24EC006C61377F50B73
:101FC000AD47AA892E8995446306F7001945653700
:101FD000653F8D444E854537FD59FD1463983401A6
:101FE000B240A2441249824941018280135509013D
:101FF0001375F50F453F2209CDB7011126CC06CE4A
:10200000B704080051371545BD37713769372AC6FF
:10201000A53F32459377150089EB136515001375BD
:10202000F50FF240E24405618280FD14E9FC0145B0
:10203000CDBF3971B7F7070006DE26DC4ADA4ED885
:1020400052D656D45AD25ED062CE03AB47027D57E9
:10205000B7E700E083AA070022C603AA470023A02F
:10206000E71823A2E718B71B0040930770052380E9
:10207000FB04930780FA2380FB0483C74B041147BA
:10208000AA8993E7070E2382FB0437240040130537
:10209000F00F2303E4802E8C3289B684E93DED35C0
:1020A000938779FF93F7F70F0947137BFB00636270
:1020B000F712A147370708006307FB00B7070700BF
:1020C0003E9C378707007955637EEC02B387840115
:1020D000636AF702A9476398F90689E481446D357C
:1020E00026850DA0E2850945E93505090345F9FF77
:1020F000FD14050C453D81C49377FC0FFDF7F53DBC
:1021000069FD7D55B7170040130770052380E7046C
:10211000130780FA2380E70403C74704418B238217
:10212000E704F250B7E700E023A0571123A24711BC
:10213000E25432445259C259325AA25A125B825B5B
:10214000724C21618280A547639AF906A14785698F
:10215000631DFB029387F9FFB3869700B374FC00FD
:10216000B69493C7F7FFFD8C33FC8701416B856BF9
:102170009387F9FFB3F7870199E363FF340193D99C
:102180004900C147E3E637FF91BF9307F00FE9B776
:102190008567C169FD17C9B71305800D638869019B
:1021A000130500026384790113051008E2851135D7
:1021B000A93521D94E9CB3843441C1B7E2852D4560
:1021C000CD3BCA94E30C99F00509F133A30FA9FEA6
:1021D000D5BF9387F9FF93F7F70F636FF70AA1470E
:1021E0006319FB06B70708003E9C83C75B043707EB
:1021F000070093F7070299E337870700B70708003E
:102200003E977955E370ECF0B3079C00E36CF7EE72
:102210008947639AF9048980D549E38104ECE28512
:102220000945413B11090327C9FF91472320E48059
:1022300003076480E34E07FE23033481FD17EDFBA3
:10224000FD14110C81C49377FC0FE9FF7D3371F508
:102250004DBD83C75B043707070093F70702D5F32B
:102260003787070079BF8547E384F9F2E2852D457A
:1022700089339389F4FFE38304E6313B93F7390014
:1022800091EB832604800327090093074900E39814
:10229000E6E43E89CE84F1BFB5476396F9001305A5
:1022A000900BD13925BDB1471305B00AE38BF9FE78
:1022B00099476394F904A1476315FB00B707080029
:1022C0003E9CE2852D45F53181440D4BA149E1311C
:1022D00063966401832704802320F9008504E39832
:1022E00034FF8327048013172C0163550700231242
:1022F000F900EDB32322F900D5B39D476399F902A4
:1023000081451305B0047531BD4423200900232203
:102310000900FD59493193F77400CA9703C70700B4
:10232000FD14398D2380A700E39634FF45BB914708
:102330006399F900130560063D39B9311305900919
:102340008DB7E38D09D8F15459BB411122C406C69B
:1023500026C24AC02E848DCD13F91500814741470E
:1023600063020904131745003E97B1463307D702AD
:1023700083A4C1B4B317F02833C90708BA949C40AA
:10238000C840829723A0040023A20400334489009C
:10239000B240228522449244024941018280B356D0
:1023A000F448E9F28507E39CE7FECDB7011126CAA0
:1023B00006CE22CC4AC84EC6AE84A1C593F71500FE
:1023C00001444147B1CB93174500A2973147B387EA
:1023D000E7029389C1B403A909003E998327090044
:1023E00081C703254900829731473307E40283A759
:1023F0000900BA979C478DC733148028B347040857
:10240000BD8CF24062444249B2492685D2440561FE
:102410008280B3D68448C5FA0504E31CE4FECDB738
:102420002320090023220900C1BFAA8703A541B4C4
:1024300011E182803A216315B7001821E30BF7FE02
:102440004845FDB77971B7E700E022D4804352CC0C
:1024500006D626D24AD04ECE56CA5AC85EC662C4E6
:102460003A8A37072000798C23A0E7180F10000064
:1024700005E123A087100945B25022549254025915
:10248000F249624AD24A424BB24B224C45618280A9
:1024900083A7C1B3B6892A89AE8A328B938BC1B424
:1024A000829703A70B008144B146C147338CD40205
:1024B00033068701104235EEC165938505F041452D
:1024C000EFF0DF8F19ED9737000083A7A74481C78E
:1024D000814511458297B7E700E023A087102D457D
:1024E00061BF138741B41C43A1E308C32300050067
:1024F000B31790283EA183A70B00232605002324B1
:10250000650123224501E29723A0270123A2570159
:1025100023A447016384090023809900B7E700E002
:1025200023A08710014589BF3E87DC47F5FF48C7D8
:1025300075BF8504E39CF4F6B7E700E023A087109D
:1025400021451DBFB7E700E09843B706200023A050
:10255000D718758F0F1000009736000083C6163607
:102560006371D50283A681B43325D5201621D58D7C
:102570000EA19736000023AB063423A0E7100145D7
:10258000828023A0E7100D4582800111B7E700E0AB
:1025900022CC80433707200006CE26CA4AC8798C51
:1025A00023A0E7180F100000BD4763E7A7043147D9
:1025B0003307E50283A7C1B4BA979C4395CF33157F
:1025C000A0282E89B345050801452EC6B93DAA8429
:1025D00009C9B2450145975000E0E780207D23A45A
:1025E0002401B7E700E023A087100145F2406244D0
:1025F000D244424905618280B7E700E023A08710FA
:102600000945EDB79737000083C7575EAA8685074F
:1026100003A5C1BB014712216307D60005071905B1
:10262000E36BF7FE014582802A8703A541BC11E1D7
:1026300082801C45B227636BC70003584500B30670
:10264000C8006355D7008146639406010841C5B7A9
:1026500003D3A700938807016316E30091C192A1F9
:102660003E8582808506C687B3C60608F1BF9736C9
:10267000000083C6A65783A701BF01476394E60005
:1026800001458280AE231386C7036394A5003E856F
:10269000828005071377F70FB287CDB7411122C4A7
:1026A00006C697370000238D075E03A401C005C04E
:1026B0002C390145B315B028B3C50508976000E073
:1026C000E78060BA930710273305F502029422448D
:1026D000B2408145014541016FE02FC8411106C656
:1026E000783919C77421631ED702B24041017DB702
:1026F0007C29E5DF7821E30AF7FE7CA1814517F507
:10270000FFFF13052585EFE04FC59737000083C70E
:10271000672389C783A781C25147F8D3B2404101DB
:1027200082807C2989C7E39AF6FC78A1C1BFD5FED7
:10273000EDBF411126C2973400009384647298441F
:1027400022C4973700009387274F06C6058BA04FFA
:1027500009EBEF00506B22852244B24092444101C4
:1027600035BF173700002321077003C7870695463A
:102770003D8B6313D704834774060345F405014674
:10278000930550025D8DEFF0CFD60146814505459A
:10279000EFF0CFBCDC44858BCDDF2285973700007E
:1027A00023A6076C972001E0E780401F5DF1B2404F
:1027B000224492444101828083C787061947BD8B1A
:1027C000E399E7F8834774060345F405014693054A
:1027D00050025D8DEFF0EFD1014681450545EFF0E8
:1027E000EFB7DC44858BB5D722859737000023AF40
:1027F0000766972001E0E780E0FD4DBF411122C44C
:1028000026C206C63C2538452A84BD8B5CA51CA380
:102810001D4724456394E7320545A8A08345B405C8
:102820008D466392D5161E2CD1E3A8B019469305A8
:10283000240313854400EFD05FE9BC20990793F788
:10284000F70FBCA00347C4051377070401CFB830C6
:1028500013670704B8B03844BA971838B8B3BC2027
:102860008507BCA097370000238C0742BC2013F7D4
:10287000F703050758B40347A4051A07D98FBCA06E
:1028800083471403858B91E7034704038947631744
:10289000F70038441C2393E707041CA33C44583436
:1028A00098B3B2402244924441018280A147BCB017
:1028B000835784061738000013080838138681C22E
:1028C000DCA0835784060347D4053444A183BD8B21
:1028D0001207D98FDCB2B420890693F6F60FB4A0A4
:1028E0009737000083C7C73B639EA7065838938776
:1028F000E6008E072318F4069387C708B387E7021C
:10290000F945104209452304A806416508C6938786
:1029100007FBB3C7070893877716B3C7B70233C758
:102920000708B387B70286073CD2BC3093E707019C
:10293000BCB03C44B6978346E40593E60604B4B3C2
:10294000B4203C44B697D8A3B4203C4421837D8B6B
:10295000B6978346F4059606558FD8B3BC208D07ED
:10296000BCA029B71042F947385205833357F70204
:102970003C5268528583FD8BAA977CD22304B8060B
:10298000334707085DB79947639BF5121E2CC9E3CF
:10299000A8B019461385440093052403EFD0FFD255
:1029A000BC201385A4009907BCA0BC3093E7270086
:1029B000BCB083471403898B95CF4C54BC299DCB65
:1029C0001946D105EFD07FD038441C2393E707F890
:1029D0001CA3BC20990793F7F70FBCA00347C405BD
:1029E00013770704E30007E8B430384493E606049D
:1029F000B4B09DB58347940391C738441C2393E733
:102A000007F81CA319469305A403EFD01FCCD1B738
:102A1000A147BCB083578406173800001308C821AB
:102A2000938581C2DCA0835784060347D4053044D4
:102A3000A183BD8B1207D98F5CB2B0200906137633
:102A4000F60FB0A09737000083C787256398A704C7
:102A500058389307E6008E072318F4069387C708B3
:102A6000B387E702794589462304D8069441C165B6
:102A70008CC6938707FBB3C7070893877716B3C73E
:102A8000A70233C70708B387A7028607BCD2BC30AA
:102A900093E70701BCB03C44B29771BD8C41B8517B
:102AA000F94705833357F702BC51E8518583FD8B05
:102AB000AA97FCD12304D80633470708C9BFA1470A
:102AC000BCB083578406173800001308E816DCA052
:102AD000835784060347D4053044A183BD8B120776
:102AE000D98F5CB2B02009061376F60FB0A09737E5
:102AF000000083C7E71A83A581C2E392A7FA58387A
:102B00009307E6008E072318F4069387C708B38758
:102B1000E702F94609452304A806416588C593875D
:102B200007FBB3C7070893877716B3C7D70233C726
:102B30000708B387D7028607BCD191BF0547639EBC
:102B4000E706B1475CB583471503898BA1CB4C558C
:102B5000BC29A9C71946D10513858400EFD0FFB65B
:102B600038441C2393E707F81CA32844194693050F
:102B700024030905EFD07FB511679737000083A7BD
:102B80002718F98FE38E07CE3C24B98BE39A07CE42
:102B900038441C2393E707021CA3DDB18347940349
:102BA00089C79C2093E707F89CA028441946930501
:102BB000A4032105EFD07FB14DBF122D4C519307D7
:102BC000660093F7F7035CB513858400E5B7011140
:102BD00026CA973400009384A4289C4422CC06CEB5
:102BE0001734000013044405858B284CC9C32AC63A
:102BF0009737000023AA0726EF00F020034784063A
:102C0000894732456307F700034784068D47631CF5
:102C1000F70283A681C2BC520357050785831307B9
:102C2000C71263F2E702BC528583B1C391470347E1
:102C30008406E31EF7FE6244F240D2440561172386
:102C400001E06700E3ED78297C3909CF742163093D
:102C5000D7026388F60278A16244F240D24405614B
:102C60006FE00F9799CF782109EF7CA1F5B72AC6BD
:102C7000EF00701962443245F240D244056139BC1C
:102C8000EDF7DC4CEDF70347840689476307F7004F
:102C9000034784068D47E31CF7FC914703478406EE
:102CA000E31EF7FE49BF630A0528011122CC06CEB8
:102CB00026CA4AC84EC652C456C2182585472A8419
:102CC0006314F7269737000093878719D44F154769
:102CD000638AE600D44F0D476386E600D84FAD47C0
:102CE0006312F7022C386244F240D2444249B2499E
:102CF000224A924A01450561B315B028B3C50508BB
:102D00006FF05F84562D130700649734000093849E
:102D1000A4F23347D7029C20A8CC850793F7F70F7E
:102D20009CA063CAE700976000E0E7808097973730
:102D30000000238307F038249D47631FF70483476F
:102D40005406B1C38356C40663ECF6024C209307C5
:102D500030045CA81305300493F6F60F0146978003
:102D600001E0E780A0D122856244F240D24442498A
:102D7000B249224A924A0561172301E06700C34421
:102D800085062316D406930530020545976000E0BA
:102D9000E780008A230FA4040549238424075838B8
:102DA0008D476317F70E975000E0E78060F70D89B5
:102DB000630A051463112517930760027CA093072B
:102DC00050027CA89307700238247CB885476302C0
:102DD000F70889659385F57013051027173A0000E9
:102DE000130A4AB583493401976000E0E780C08642
:102DF0004E2C835ACA002A8913060064B3855503F2
:102E0000814613850532B335B50097C001E0E780F0
:102E10004060AA84B335590337460F0013060624D1
:102E200081463305590397C001E0E780805E832720
:102E30000A00AA948297B307950003278A00BE85EB
:102E400063E4A70063E4E700B385E7404E85EFF055
:102E5000CFF383471403898BE1C783478403E9C316
:102E60004C54DDCDBC25CDCF89472308F40219464B
:102E7000B10513052403EFD05F8522856244F2403B
:102E8000D2444249B249224A924A05616FD05FF466
:102E900089463C346315D70213F7170019CB898B89
:102EA0001307500291EB9307700278A07CA881472A
:102EB00021BF13076002C5BF93076002FDB799CF1A
:102EC00093F617001307500291E6898B13B717008A
:102ED0001307670278A0230B0400D1BF7C281307D7
:102EE00040026368F700930750027CA87C287CA00E
:102EF0007DBF850793F7F70F7CA813077002E36483
:102F0000F7FEEDB713077002930750027CA878A074
:102F10009307600255BD1307500293077002FDB777
:102F200085472308F40291BFF2406244D2444249EB
:102F3000B249224A924A05618280828001114EC6BE
:102F400097390000938949CF22CC03A409094AC8C4
:102F5000173900001309099E0357C90026CA835474
:102F600064088327040906CEB384E40237470F00C0
:102F70009306F7231307072452C456C25AC0B694C7
:102F8000B3D4E40263EE9702138AC1B3B3849740CB
:102F900083270A00829763E9A4023385A44063492A
:102FA000050283570404A30F040085072310F404CB
:102FB00083470414639E07102285EFE04FB821AACF
:102FC00003278900BA97C9B783278900BE94F1B750
:102FD00083270A008297032784086366E50A198D10
:102FE0007E3C0357C9008E07B387E7021307003200
:102FF00093870719B3D7E70263ECA708B74A0F0016
:10300000138BFA23938A0A24835704048507231019
:10301000F4048347041481E72285EFE04FB2228550
:10302000973001E0E78020E66312052403260409B7
:103030000327C408832689003297BA876364C700D0
:103040006364D700B307D740783C0356C9002328F0
:10305000F408050778BC035764083307C7025A977A
:1030600033575703B384E74063F5E700998EB38481
:10307000F60083270A00829763E6A4043385A44000
:10308000E34405F839BF83278900998F3E9589BFAE
:10309000A1452285973001E0E78000D7A305A4026F
:1030A0009737000083A707876382071C6244F240BA
:1030B000D2444249B249224A924A024B89451545B7
:1030C0000561828783278900A6973385A7404DBF76
:1030D0002285EFE00FB12285973001E0E780A0DA8A
:1030E000631605180355C90083576408B7460F00D7
:1030F0001386F623B387A7029386062403270409C1
:10310000230B0402832A8900B297B3D7D7026369DD
:10311000F716B307F7408326C4082324F408014BAD
:10312000B387E600BE8463E4D70063E45701B38449
:1031300057411E3023289408A1CB835604045A30EB
:1031400037460F0056B03387E640B387E7023A3080
:103150001306062481468145BA97B3C7070833850D
:10316000A7023EB097C001E0E780A02A11CD2695C6
:10317000B3349500A695AA876314BB006364550118
:10318000B30755412328F40883270A008297AA84AD
:1031900083270A008297E30D95FE83270A00832484
:1031A0008408829763E3A40E3385A4407DC1035A4B
:1031B000C90083576408B7440F001387F423B3870B
:1031C000470393840424BA97B3D7970217270000C4
:1031D0000347D772BA9763EEA70AB3359502835AAD
:1031E0002402528681463305950297C001E0E780AC
:1031F00040223389AA0033854A0337460F0013065D
:1032000006248146814597C001E0E780802015C1F2
:10321000B337950252868146B385B4023385A40242
:10322000BE9597C001E0E780C01EB38AAA40231173
:1032300054033545B12123A8890838348547631ADA
:10324000F700930700FD7CA4814503A501C1EFD0E1
:10325000DF909547173700002322F7C23707100089
:1032600083A781C298C7060923A82707F2406244B2
:10327000D2444249B249224A924A024B05618280B5
:10328000B3065701B387F64079B583278900BE940A
:1032900021BF9737000023A907A2834709018DC3E7
:1032A00003A541C0EFD05FAB624483274900F240E1
:1032B000D2444249B249224A924A024B056182876E
:1032C000834594026244F240D2444249B249224AC0
:1032D000924A024B01450561B315B028B3C50508F4
:1032E0006FF04FA6011122CC26CA4EC606CE4AC8A0
:1032F00052C456C25AC038358547832405092A84EA
:10330000AE896314F70C83570508835AC503172A3F
:103310000000130A2A62035BCA0063FC57191429D0
:103320006399E61803278511631507180327450AD3
:103330006311071874351D47639DE6162A3DB38A4D
:10334000FA409307204E33055503032944093746B5
:103350000F001306062481463305F5029727000067
:1033600083C7C75933592503B335AB023E99334957
:103370000908231324093305AB0297C001E0E78055
:103380004009B307950033B5A7002E9503278A009F
:10339000BE8419E163E4E700B384E740B30769033F
:1033A00037470F009306F7231307072423A099003C
:1033B000B697B3D7E702D69763E4F4009D8C31A0AB
:1033C00003278A00B307F740BE941389C1B383274C
:1033D000090023A09900829763E2A4103385A440DA
:1033E000635D050A83270900172B0000130B8B541C
:1033F000829703A709006369E50E198D7E3C035788
:10340000CB008E07B387E7021307003293870719B3
:10341000B3D7E70263EFA70C374A0F00930AFA23EA
:10342000130A0A248357040485072310F4048347EE
:10343000041481E72285EFD09FF02285973001E0C8
:10344000E78060A461E5832604098327C408032775
:103450008B00B697BE8463E4D70063E4E700B384CF
:10346000E7407C3C8356CB002328940885077CBC2E
:1034700083576408B387D702D697B3D7470363E669
:10348000F40A9D8C8327090023A09900829763E1A9
:10349000A40A3385A440E34705F89727000083C7B3
:1034A000F74563E6A7069737000023AF87800145FD
:1034B000B9A88357640837470F009306F723B387EB
:1034C000670313070724B697B3D7E702E3F8F4EED0
:1034D00003278A002697B304F740C5BD972700004D
:1034E00083A7C745BE94DDBD83278B00998F3E958A
:1034F00031B7A1452285973001E0E780E090A30530
:10350000A4029727000083A7E74081EF7D55F24092
:103510006244D2444249B249224A924A024B05616E
:103520008280894515458297D5B71D8FBA9499BF7A
:1035300083278B00BE94B1BF83A781C19843370610
:10354000CEFF7D161377F7CF1367071098C303A735
:1035500081C31447370803001375F51FF18E14C794
:1035600083A681C223A8060523A40700904B93F5E8
:10357000F507130888151366F60390CB904313667E
:10358000060890C3F04F137606E0498EF0CF23ACC7
:10359000070423A007065057759A50D79043137617
:1035A00006F84D8E90C31306401FF0D21736000068
:1035B0002322068C173600002326068A054690C271
:1035C0009043B70533001376F6CF90C3904313763C
:1035D000F6CF1366062090C310474D8E10C723A860
:1035E0000605D8531317F728D8D32547F05201C63C
:1035F000B04FE37DC7FED8531317F748D8D3A8536D
:10360000133545008280138781C21443BC4ABD9B99
:10361000BCCA01000100010001001C43B44B93F639
:10362000F68FB4CB944393E6860094C30100010067
:103630000100010083A681C19C4293F7F7CF93E775
:1036400007109CC203A681C31C46B706CEFFFD1619
:10365000F58F1CC61C4337070300B8CB83A701C2F4
:1036600099CBD44390479842518F98C2944BDC4BEE
:103670009842D98F9CC29737000023A1078082808F
:1036800083A781C29C438D8BE9C74111B7E700E056
:103690004AC003A9070026C23707200006C622C475
:1036A000AA843379E90023A0E7180F10000017243B
:1036B00000001304E47A584C8D47631AF7009727EB
:1036C000000083A7E7530146814545458297194786
:1036D0006391E4048347140289CB83470402639611
:1036E000970097270000A38D0778584CA1476315D2
:1036F000F700930780101EB0238A01B22937B24029
:103700002244B7E700E023A0271192440249410177
:1037100082809D47639BF40083471402F9D70347D7
:1037200004028D47E313F7FC6DBF544C6389E60038
:10373000584C6306F700584CA147E31FF7FA83473C
:103740001402DDFB5C4C2300F4028547A300F40265
:0437500065B7828057
:10375400971100209381C1C217D101201301418A1E
:103764001305400097D5FF1F9385858917D6FF1F42
:103774001306C6A863FAC5008322050023A05500DA
:1037840011059105E3EAC5FE17D5FF1F1305459CF6
:1037940002852A8309CA83830500230073007D16EA
:1037A400050385056DFA82802A8311C62300B300C0
:1037B4007D16050365FE828015C22A8385466367EC
:1037C400B500FD561307F6FF3A93BA9583830500B7
:1037D400230073007D163693B6956DFA8280B71771
:1037E400004003C777051377E70FA38BE70413079C
:1037F40000F8A38DE7043D47238CE7041307500327
:10380400A38CE70403C7A7051377D70F238DE70419
:103814008280371700408347E70412054111BD8BAE
:10382400C98F93F7F70F93068008F3B6068093F6D3
:10383400860836C60F100000930670052300D704CF
:10384400930680FA2300D7040F1000002307F7041F
:1038540023000704B247F3A707800F1000004101BB
:103864008280B717004003C7E7020D89411113771F
:10387400C70F498F93068008F3B6068093F686082F
:1038840036C60F100000930670052380D7049306F4
:1038940080FA2380D7040F1000002387E7022380D7
:1038A4000704B247F3A707800F100000410182808C
:1038B40041112A830148930E407E130F0019930F80
:1038C4004006B348030863EF1E0113030019337362
:1038D40065028542FD4363F6B2088D4F214F930E76
:1038E4004006A1A07D13336EE3039308E016630E34
:1038F4000E00336EF3039308D01663080E0093781A
:10390400330093B818009388D816C29833C80808AF
:103914004DBF93F81500138EF5FF637CBF02F908C1
:10392400C29833C80808B3450E08E394F5FF8545EB
:10393400630B0300B378D503814563860800937550
:10394400350093B51500F105C29533C805088945BE
:10395400E9BFB3881341C29833C80808B3450E08B9
:103964009DBF7D16329879463307C70213D61700D8
:10397400BE073348080832976146B3F6C6021306F9
:103984008070B386C6023697A166F58F4207D98F39
:10399400B716004003C7F60213770708D88390834D
:1039A40003C7F60213770708E316E6FE9883B716F3
:1039B40000404DCF130780087337078013778708BB
:1039C4003AC40F1000003717004093067005230017
:1039D400D704930680FA2300D7040F100000232A8B
:1039E40007038346170393E60608A308D7022300B8
:1039F40007042247732707800F100000116637174A
:103A040000407D16545B4C5FAD8EF18EE5FE93064F
:103A14008008F3B6068093F6860836C60F100000B9
:103A2400930670052300D704930680FA2300D70475
:103A34000F1000005CDB8347170393E70704A30818
:103A4400F70223000704B247F3A707800F10000012
:103A54004101828003C7F60213770708D883908355
:103A640003C7F60213770708E316E6FE98837DD3AF
:103A740091B755714EDF86C7A2C5A6C3CAC152DD30
:103A840056DB5AD95ED762D566D36AD16ECFAA897E
:103A940082C0EF00905393078008F3B7078093F731
:103AA4008708BEC20F100000B71700401307700547
:103AB4002380E704130780FA2380E7040F10000033
:103AC40003C7F7021377770FA387E70203C7F70249
:103AD40013678700A387E702238007049647F3A7A9
:103AE40007800F100000130B80C1334B65039167EF
:103AF400938707E8130A30029546B347F502330A61
:103B04004B033EC8FD873ED2BD67938707A6334A61
:103B1400FA021357FA413ACA330740413AD47D872F
:103B24003ACC1307A0FB3307EB02B347F702056750
:103B3400130707FA3ECEFD873ED693872900331933
:103B4400F70063E436013319370161671307076A25
:103B54003345E50213070010B317F0288D873EC4E0
:103B640095473309A9023349E9021307400633098B
:103B7400E9021307D0073349E9021357F9413AD848
:103B8400331730290D873AC663EF374993075047F7
:103B9400B307F7023D67130707A6116C814A814BEF
:103BA40013048008371D0040930480FA7D1CB387FA
:103BB4006703B307F040B3C7E7023ED0FD873EDAA0
:103BC4007337048013778708BAC40F1000001307F3
:103BD40070052300ED04930D0D0423009D040F10C4
:103BE400000003473D051377870FA309ED0403473E
:103BF4003D0513671700A309ED0423000D042647B0
:103C0400732707800F100000930C7005733704802E
:103C140013778708BAC60F10000093077005238036
:103C2400FD0023809D000F10000003473D0513672E
:103C34000702A309ED0403570D051317E7282318FA
:103C4400ED0403570D051317F7282318ED042380FB
:103C54000D003647732707800F10000003473D050A
:103C6400137707026305073C03473D05218B6DDF8E
:103C7400880097C0FF1FE7800079733704801377AB
:103C84008708BACA0F10000023809D0123809D007D
:103C94000F10000003473D051377F70DA309ED044A
:103CA40003473D0513670702A309ED0403570D05F8
:103CB4001317E7282318ED0403570D051317F728E6
:103CC4002318ED0423800D005647732707800F1037
:103CD400000003473D0513770702630107380347D4
:103CE4003D05218B6DFF97C0FF1FE78000562A8793
:103CF4003ADC97C0FF1FE78040556257E30AE5FEB0
:103D040003570D0506451317E7282318ED0497C03C
:103D1400FF1FE780007103473D05218B6DDF0357CB
:103D24000D0583462D05C24733778701B386860385
:103D340013D6F641BA96B388F640925733B7E600E5
:103D440032971D8FD247B3B61601158F63C6E700AD
:103D5400631CF700637A1A01E2476348F7326395FC
:103D6400E700A25763E3F832894663F27633733788
:103D7400048013778708BAD00F100000130770056A
:103D84002300ED0423009D040F10000003473D05AC
:103D940093F6F90F1377870FA309ED0403473D0545
:103DA400558FA309ED0423000D04065773270780DC
:103DB4000F1000001306700503473D051D8B6310AB
:103DC40037377337048013778708BAD40F1000008D
:103DD400130770052300ED0423009D040F10000059
:103DE40003473D051377F70DA309ED0403473D058C
:103DF40013670702A309ED0403570D051317E728FA
:103E04002318ED0403570D051317F7282318ED04A1
:103E140023000D042657732707800F100000930614
:103E2400700503473D051377070263040732034710
:103E34003D05218B6DDF880097C0FF1FE780A05CE4
:103E44007337048013778708BAD80F10000013075C
:103E540070052300ED0423009D040F1000000347A8
:103E64003D051377F70DA309ED0403473D051367DB
:103E74000702A309ED0403570D051317E7282318B8
:103E8400ED0403570D051317F7282318ED04230039
:103E94000D044657732707800F1000009306700522
:103EA40003473D05137707026300072E03473D05CB
:103EB400218B6DFF97C0FF1FE7802039AA8C97C024
:103EC400FF1FE7808038E30C95FF03570D05064577
:103ED4001317E7282318ED0497C0FF1FE7806054E9
:103EE40003473D05218B6DDF733704801377870803
:103EF400BADC0F100000130770052300ED04230043
:103F04009D040F10000003473D051377F70DA30927
:103F1400ED0423000D046657732707800F1000007B
:103F240003570D0583462D05C25733778701B386A2
:103F3400860313D6F641BA9633B7E6003297338830
:103F44002641B3B606011D8F158F6346E000631842
:103F54000726630608261305800C3307E50202567C
:103F6400D256B335050333050503BA95EFB0010CFA
:103F74009306150033B5A6002E951357F501BA968E
:103F840033B7E6002A971316F70185820587D18E89
:103F94006346E000631F072C638D062C0356CD0295
:103FA4001582B305D60033B6C50032976348E000E6
:103FB400631007361307F00F637CB7340947637146
:103FC400572793078008F3B7078093F78708BEDE67
:103FD4000F100000B7170040130770052380E70493
:103FE400130780FA2380E7040F100000DA3789668C
:103FF4008116558F33470708DAB723800704F6572D
:10400400F3A707800F100000BE402E449E440E49C3
:10401400FA596A5ADA5A4A5BBA5B2A5C9A5C0A5DB4
:10402400FA4D6961828022479307504795B67337EA
:10403400048013778708BAC80F10000023809D01FD
:1040440023809D000F10000003473D0513670702FE
:10405400A309ED0423800D004647EDBE73370480A9
:1040640013778708BACC0F10000023809D012380AA
:104074009D000F10000003473D0513670702A309C5
:10408400ED0423800D00664789B1E3920BCE72469E
:10409400B2569315170013D3F80113951800B3659E
:1040A400B3003ADE46DCEFA071787257850B93FBC0
:1040B400FB0F6346E00031EFE258638C080493067B
:1040C400150033B5A600AA9513D7F501BA9633B7F0
:1040D400E6002E9785827E07558FF336048093F68B
:1040E4008608B6CE0F10000023809D0123809D001A
:1040F4000F1000008356CD02369733470708231666
:10410400ED0223800D007647732707800F1000000F
:10411400F5BC9306F5FF13351500898D75B7733714
:10412400048013778708BAD20F1000002300CD044F
:1041340023009D040F10000003473D05558FA3097C
:10414400ED0423000D041657732707800F10000099
:10415400A5B17337048013778708BAD60F1000000F
:104164002300DD0423009D040F10000003473D05D8
:1041740013670702A309ED0423000D0436577327C0
:1041840007800F10000071B9733704801377870814
:10419400BADA0F1000002300DD0423009D040F1081
:1041A400000003473D0513670702A309ED0423003C
:1041B4000D045657732707800F100000D5B19305DF
:1041C400800C3387E50233850503B3B50503BA953F
:1041D400154763733705A247130750473387E70230
:1041E400330660413306E6023D67130707A63346EC
:1041F400E6029356F641EFA071631306F5FF1335FB
:104204001500898D13D7F5013A963337E6002E97BA
:104214009316F70105829DBBB247130750477DBF34
:104224001307800873370780137787083AC10F1084
:104234000000B7160040130770052380E604130737
:1042440080FA2380E6040F100000DA3605660116B2
:104254001377F70F518F33470708DAB62380060424
:104264000A47732707800F100000850A93FAFA0F94
:1042740081BA33E6E60049CE0356CD02B335D00009
:104284003307E0400D8F3305D04015826345E000CD
:1042940041E3637FA6060947637E570393078008BB
:1042A400F3B7078093F787083EC30F100000B717D2
:1042B4000040130770052380E704130780FA238066
:1042C400E7040F100000DA377D8BDAB72380070488
:1042D4009A473DB373370480137787083AC50F10A4
:1042E4000000130770052300ED0423009D040F1044
:1042F40000000357CD02856681161377F70F558F9B
:10430400334707082316ED0223000D042A4791BF03
:1043140093078008F3B7078093F787083EC70F1009
:104324000000B7170040130770052380E704130744
:1043340080FA2380E7040F100000DA3796063697D8
:1043440033470708DAB723800704BA4755B99147BA
:1043540063ECB70497D701009387C7C2B3C5F520B0
:1043640098413E97B71700409387470B02879443C1
:1043740037170040B3F6A64094C39306070B9C423C
:10438400B3F7A74019A8944337170040B3F6A640E3
:1043940094C39306070B9C42C98F9CC29307070AD8
:1043A40098433377A74098C38280944337170040DB
:1043B400C98ED9B798433377A74098C3B71700403D
:1043C4009387070A9843498FF9BF9843498FF5B7F4
:1043D400914763ECB70497D701009387E7BBB3C554
:1043E400F52098413E97B71700409387470D028701
:1043F400944337170040B3F6A64094C39306070DC1
:104404009C42B3F7A74019A8944337170040B3F66A
:10441400A64094C39306070D9C42C98F9CC2930780
:10442400070C98433377A74098C382809443371787
:104434000040C98ED9B798433377A74098C3B717BC
:1044440000409387070C9843498FF9BF9843498FDD
:10445400F5B719C5371700401E2FCD8F1EAF8280C8
:10446400B71700409A2FB375B7408EAF8280375785
:1044740000408357078011C593E717002310F78086
:104484008280B3C70708F99BB3C70708C5BF37576E
:1044940000408357078011C593E707102310F78066
:1044A4008280B3C7070893F7F7EFB3C70708FDB7D0
:1044B400375700408357078011C593E7072023101F
:1044C400F7808280B3C7070893F7F7DFB3C70708FD
:1044D400FDB7375700408357078011C593E707405E
:1044E4002310F7808280B3C7070893F7F7BFB3C7D9
:1044F4000708FDB7B75700402398A7808280B757B5
:10450400004003D507811375F50F82809377E50F7B
:1045140099C193671500375700402318F7808280AC
:10452400375700408357078011C59397F728231006
:10453400F7808280C607C583DDBF011126CAB75440
:10454400004052C43E8A83D7048006CE22CC4AC897
:104554004EC656C25AC09397F7282A892390F480EE
:1045640001452E84328BB68ABA895D3FB92C37480F
:104574000F00130808243358050383D74480B3C7B6
:10458400070893F707FCB3C707082392F48083D77F
:104594004480B3E70701B3C707082392F48083D7A5
:1045A4000480B3C70708F99BB3C707082390F480B6
:1045B400E1679387076A63E1870A06043354850237
:1045C40085671387C7FF114633440408618F01C709
:1045D400FD173376F40005089307F0033358F80AFF
:1045E400B7570040B7550040334808082390078365
:1045F400239EC58083D70580F240624493E7170069
:104604002390F58083D70580D244024BB3C70708B3
:1046140093F757BFB3C707082390F58003D50580E8
:104624003365550133652501334505082390A5807D
:1046340083D785802394058083D685804249924A16
:10464400B3E7460133E73701334707082394E5808E
:10465400B249224A0561828063180B028D45B30575
:10466400B4020546B355B502D205D18133F6C50A65
:104674009307C0123308F8029307803E1316F628F6
:104684003358F8020508A9BFE5473304F40233564A
:104694008502520651821316E628D9BFB757004047
:1046A40003D7478183D78781C207D98FE98FA207B0
:1046B400A1833385A7401335150082801345F5FF88
:1046C400B757004033450508239AA7808280B7472F
:1046D40000401147A381E74009472380E7401307BF
:1046E40000062380E74003C7174013670701A38030
:1046F400E7408280894737470040631DF5008347C0
:10470400174093E70704A300F740B7470040A3818D
:10471400A74082808347174093F7F70BEDB789478B
:104724006305F50463E2A70205E5B747004003C744
:1047340007401377770F2380E74003C717401367B9
:104744000702A380E74082808D476307F5028280D9
:10475400B747004003C707401377770F2380E7402C
:1047640003C717401377F70DE9BFB747004003C7E6
:10477400074013678700C1B7B747004003C7074026
:1047840013678700E1BFB747004003C70740B74638
:1047940000401377F70E2380E7402396B740054780
:1047A4002383E740AA951D476318B50037470040A7
:1047B40083477740F5FF828003C67740E366C7FEF0
:1047C400102105052388C640C5B7B71700409A27AE
:1047D4009306000C1377070C630AD7049A27137700
:1047E40007100DC79A279E277D8B09EB93F70720A7
:1047F400B1C33755E80113050580828037C5981287
:10480400FD8B130505E03345F50282809A279E2728
:1048140013770720FD8B11C73755E8011305058071
:10482400DDB73725F40013050540F1BF21651305F5
:1048340005D082803725F400130505408280B7F740
:1048440000E0884782803285814737370040A1469F
:1048540063C3A70082803037E30FD6FE3386F500AA
:104864001022850710A7EDB797F6FF1F93864631F0
:10487400AA8788421717002013070768AA9763E9D5
:10488400E7000A87130707FC6364F7009CC2828071
:104894007D558280411122C406C62A843D372947AA
:1048A400B307E502B2408D83B3D78702224495074C
:1048B400B3D7E70237370040B3C707085EA7410103
:1048C4008280716541111305052006C6E137B737AB
:1048D4000040130770F8B8A30D47B8B313070004DA
:1048E40098B30547F8A7B2404101828011456FF0A3
:1048F4004F98411193962500AA852D4506C697D059
:10490400FF1FE780C072B24001454101828001115E
:1049140022CC06CE3714004026CA4AC84EC652C41A
:1049240083447405034AB405834984050349940503
:10493400EFE0FFEA8347A40593F4F40F137AFA0F28
:1049440093E71700230DF40493F9F90F1379F90F82
:10495400B717004003C7A705058B6DFF03D5C7052F
:10496400A38D4705238C3705A38C2705A38B9704B8
:10497400F2406244D2444249B249224A05618280EB
:10498400411122C406C62E849397556063DF070045
:1049940097C0FF1FE78020CA19C1EF3040281315C4
:1049A400F468B24022444101828093F7150013C594
:1049B4001500E5FB8967ED8F85C3EF3011773D372F
:1049C40037F60200130606E0896503C501A8EF3037
:1049D400A04E1315D468F1B711656D8D79D117C543
:1049E40001001305A55CEFA0517D130600649165D9
:1049F40003C501A8EF30404C1315E4685DB72D7171
:104A0400232A9110FD74E98C232C81102328211171
:104A1400232631112A84AE893289930600100A862E
:104A2400A6852D45232E111097D0FF1FE780206007
:104A340013154401498113962900CA850A9597C024
:104A4400FF1FE78040C8A68585660146254597D0A7
:104A5400FF1FE780C05D0A86A685930600102945DE
:104A640097D0FF1FE780A05C8320C111032481112C
:104A740083244111032901118329C1101561828006
:104A8400011183A781A706CE22CC26CABD8B21475C
:104A94006399E700AD37F2406244D24401450561B1
:104AA4008280B7F70700DC532A84B284BD8B9396C7
:104AB40025006397E7008567FD17F58F91C301A073
:104AC400A2850146254536C697D0FF1FE7802056AC
:104AD400B2462686A285294597D0FF1FE780205538
:104AE4005DBF1D71494697C501009385654C17F557
:104AF40001001305E51D86CEA2CC97C0FF1FE780F9
:104B040020CE01E917C501001305C54BEFA0F16ADA
:104B140001A0B7F700E023A40700795798CB3D47DD
:104B240098C30564B7E700E023A087180F100000BE
:104B340017D7FF1F1307C7C623AEE1A6130700F854
:104B4400A38AE7401306C0038145480897C0FF1FA6
:104B5400E780E0BD97F7FF1F9387C7553ECA896773
:104B640093870780FC849D673ECEB7070105938732
:104B740007103ED0ED472312F10285472303F102CB
:104B840097070000938727D7BEC497070000938731
:104B940067EFBEC69307B4D32314F102970700004E
:104BA400938727CA3EDAB7F5070097070000938773
:104BB40047D63EDE814697070000938767D370008F
:104BC400E1051945BEC097D0FF1FE780404619464E
:104BD4006C001305E102EFE0DFBBD24781C7BC8460
:104BE40063F3870001A04808EF301004AA8501C9C7
:104BF40017C501001305453EEFA0913A01A0F64008
:104C0400664425618280411117050000130585D78C
:104C140006C622C4EF30A07E138401A808A0112880
:104C240008202244B24013060032896541016F30E6
:104C3400A028397106DE13078008F337078093F73D
:104C440087083EC20F100000B71700409305700597
:104C54002380B704130680FA2380C7040F100000D2
:104C640083C6F70293F6A60FA387D702238007040F
:104C74009246F3A606800F1000007337078013775F
:104C840087083AC40F1000002380B7042380C704A8
:104C94000F10000003C7F70213672700A387E7027A
:104CA40023800704A247F3A707800F1000000545DF
:104CB400EFE03FBB253981470147814605468545DD
:104CC4001305407EEFE0DFBE680013064002814515
:104CD40097C0FF1FE780A0A5B707C0A83ECAB78743
:104CE400E803938707D03ECC97C7FF1F9387678855
:104CF4003EC6680097C7FF1F938727893EC8EF30D9
:104D0400501FF25021618280011106CE22CC26CAA6
:104D1400B92685450545EFF0AFEB8D450945EFF024
:104D24002FEB371400409307C40C894484C32945EE
:104D340097B0FF1FE78080791304840D13052003C7
:104D440004C097B0FF1FE780607885461306F10022
:104D54009305700A5545292D19C50545F24062444D
:104D6400D2440561828029469305E00E5545B12B56
:104D74006DF51D469305C00E5545812B79FD2946D9
:104D84009305D00E5545912369F913060005930543
:104D9400A00F55451D2B71F105469305E00F5545B0
:104DA4002D233335A0005DBF2A8611C585469305A2
:104DB400700A554575AB054582802DC9011122CC79
:104DC40099462A8430008545554506CE552301C9A8
:104DD400230204000545F2406244056182801C847C
:104DE400988685661CC49C84938606F0BD8B5CA063
:104DF4001C86A207F58FD98F1307701193975760FC
:104E0400B3C7E70A18852207758F9485558F9306D3
:104E1400F00E131757603347D70A3387E6401AA0BA
:104E240013077011B307F7403EA075B7054582809C
:104E3400B71700401307000423A6E70C9145130598
:104E440000046FF0EFD8B71700401307000423AC39
:104E5400E70C8280B71700401307000423A6E70C71
:104E640082802E8609C581C50821814525AB05456B
:104E740082802E8611C589C50821930510021DA3C1
:104E840005458280011106CE22CC26CA630505128F
:104E94009304900604A1A300050023010500A301C7
:104EA40005002A846D2A294597B0FF1FE780006218
:104EB4009305F10004A022856D376314050E9C87C9
:104EC400130740021CB06398E70E1305400697B021
:104ED400FF1FE780A05F082001469305C007F52661
:104EE400631B050C094597B0FF1FE780205E08206F
:104EF400014693059005D12E631F050A0820896693
:104F040017C601001306460F9305E005C92E45E5B3
:104F140008200546930590054D2E51ED130580029A
:104F240097B0FF1FE780805A9305F10022859137DF
:104F340059E19C873CA0C1C3082039469305D0079A
:104F4400692635E9082001469305A006BD2E25E50E
:104F5400082001469305B0068D2E31ED0820014648
:104F6400930530049D2621E908201306900A930531
:104F74002004A12E29E108200D4693051004B12632
:104F84001DE908201306900A930500043D2EAA8407
:104F94001DE1514597B0FF1FE780405385473CB062
:104FA40021A8930780061CA09305F1002285553D96
:104FB400E30705F004A08544F24062442685D24408
:104FC4000561828009E9054582800545F240624415
:104FD400D24405618280011122CC06CE26CA2E84D9
:104FE400EDD53C31AA84F5D3082199460A86B1450A
:104FF400412661FD882099463000C945952E71F5FA
:105004003C801EA03C813EA03C825EA03C847EA0ED
:105014003C851EA43C863EA455BF411122C40D64A8
:1050240026C206C6AA84130404EE2685EFF00FE711
:1050340019C1014505A07D146DF80545EFF04FC772
:105044000545EFF00FC93705001013050540EFF0D3
:10505400EFE60545B2402244924441018280411169
:105064009315B028054506C6EFF0AFBE8545370554
:105074003000EFF0EFB50145EFF06FBFE165814718
:1050840011679306004001469385056A0145EFF0D8
:10509400CFCA0545EFF0AFBDB24085472384F1A8E0
:1050A4000145410182800111054506CE22CC4AC842
:1050B4004EC652C456C226CAEFF08FBF0545EFF064
:1050C4004FC13705001013050540EFF02FDF0145F0
:1050D400EFF0EFB9854537051000238401A8EFF000
:1050E4002FAF8D4537052000EFF08FAEB717004086
:1050F4003707200023ACE70C1545371A004097B05A
:10510400FF1FE780403B25449309CA0C3709200060
:10511400B70A2000154523A0590197B0FF1FE78067
:10512400803993048A0D7D1423A02401154513743A
:10513400F40F97B0FF1FE780003869FC8D453705F1
:105144001000EFF0EFA83704100023A089001545E4
:1051540097B0FF1FE7802036154523A0240197B0A0
:10516400FF1FE7804035154580C097B0FF1FE780DB
:105174008034854537053000EFF08FA5094597B099
:10518400FF1FE780A0346244F240D2444249B2494E
:10519400224A924A0561E1B5011106CE22CC26CA03
:1051A4004AC84EC691E90549F2406244D244B24924
:1051B4004A85424905618280B28475D683C781A835
:1051C4002A892E8491E3613D0545EFF08FB00545B2
:1051D400EFF0EFAB370503000505813569F51315CD
:1051E40019001375E50F8145EFF04FB2B7090700B9
:1051F400138529081D3545F9A29493894908082087
:10520400EFF04FAF4E85113D2A8951FD0504E31897
:1052140094FE0545EFF0CFA941BF011106CE22CC83
:1052240026CA4AC84EC652C456C2BDC532842DC60B
:1052340083C781A8AA84AE8991E315350545EFF0AB
:105244000FA5370503000505C93B39E585476310FC
:10525400F406EFF00FA8139514001375E50F8545B8
:10526400EFF0CFAA370A030013052A007D330DE5BA
:105274000149930AF4FF130A0A0463982A010145B9
:10528400EFF02FA50545EFF0AFA252857933AA843C
:105294000DC10545EFF0EFA38544F2406244424955
:1052A400B249224A924A2685D24405618280054544
:1052B4004DB7EFF0CFA4B387290188A30509E31EF6
:1052C40089FA0545EFF0EFA0C9BF01114C86D086DD
:1052D4006C00094606CEC935F24005618280011191
:1052E40006CE22CC26CA4AC84EC611EA0549F24067
:1052F4006244D244B2494A85424905618280B684F7
:10530400F5D683C781A82A89AE89328491E3813B8B
:105314000545EFF00F9C0545EFF06F973705030047
:105324000505E53961F5131519001375E50F814578
:10533400EFF0CF9D3709070013052908F9395DF50A
:105344004E85EFF02F9B13054908C13945F1A2940E
:10535400930949080820EFF0EF994E857D392A8991
:1053640051F50504E31894FE0545EFF06F9441B739
:10537400011126CACC87B2849305F100054622CCDC
:105384004AC806CE2A843689013D19E94A86A6858B
:1053940022856135F2406244D244424905618280EB
:1053A4000545CDBF19C28546E1B705458280411147
:1053B40022C406C683C781A82A8491E34D310545DA
:1053C400EFF02F910545EFF08F8C370503000505AD
:1053D400A93119C50544B240228522444101828085
:1053E4001315140081451375E50FEFF02F9237055F
:1053F40007001305250815312A8469FD0545EFF0DA
:105404002F8BD1BF1DC9411122C426C24AC006C672
:10541400AA842144130980072285513F01E980A011
:10542400B24022449244024941018280050413742B
:10543400F40FE31324FF0545E5B7054582802E8666
:10544400AA851305700551B541118145094506C664
:10545400FD3709C50545B2404101828081450D45AE
:10546400F93F6DF981451145D93F3335A000E5B7C2
:10547400011106CE22CCA307010011E50545F24037
:105484006244056182802310050023110500231264
:105494000500231305002A84D9361306F100930569
:1054A400F00F13057005FD3D71F9930500041945CE
:1054B4007937294597B0FF1FE78040018D4519458D
:1054C400BD3F4DFD930500080545953F45F99305FE
:1054D40030032545AD375DF1930530041D4585370F
:1054E40051FD9D3741FD23AA01A823A801A823A6A5
:1054F40001A8238501A8A38401A885471CA09C8733
:105504001CB0B5BF01E9054582800545F2406244FF
:1055140005618280011122CC91462A847000954550
:105524001305700506CEA9356DF13C8613978700E7
:10553400A183D98F1EA03C8713978700A183D98F9D
:105544003EA0E9B709E9054582800545F240624479
:10555400D24405618280011122CC06CE26CA1C21C8
:105564002A84E5D7A30305006800AE84613F71FD7A
:1055740038873C86938641A95AA03EA01307703E03
:10558400636EF7009CC22303040023A801A82385AB
:1055940001A823A601A8A38401A84DBF138691A83E
:1055A400182219C3984219EB05479CC218A223A8D4
:1055B40001A823A601A8238501A849BF3D463307B6
:1055C400C70241463E973347C702138601A9998F04
:1055D40098C218423377F740635407049385C1A8EF
:1055E400944195CEB386D440138866EB1307604F7D
:1055F400636707033D67130707A61388A1A83357FA
:10560400D7028346080099C674208D48B3861603D2
:105614003697098378A005472300E80078B084C151
:105624001CC22DB701114EC6856922CC26CA06CEEE
:105634004AC8AA842E84FD193359340B26853304B1
:105644002441B3450908CA94EFF0EF9375F4F2408E
:105654006244D2444249B24905618280411122C464
:105664003714004026C206C69307C40A856484C35F
:105674001304840B930700081CC06D37B24004C0A8
:1056840022449244410182800111C8878545130553
:10569400F10006CEE137F24005618280011122CC8F
:1056A4003714004026CA06CEC8879307C40A856407
:1056B40084C3130700081305F10098C385459D377B
:1056C4001304840B04C0F2406244D2440561828016
:1056D40079714ECEAA891305A00206D622D426D209
:1056E4004AD036843289AE84553F9397890093D942
:1056F4008900B3E737017C86931789001359890021
:10570400B3E72701914568007C87893F1305B00200
:1057140071379385440193978500B3C50508A1812A
:10572400CD8F930644017C8693978600B3C6060802
:10573400A182D58F680091457C870D371305C0027F
:10574400B13FB250225492540259F24945618280C9
:1057540041712324811EB387B60036842326111E8B
:105764002322911E2320211F3308C5009306000F16
:1057740063C306099306801163D7F60013048011EE
:105784000D8C334404088A879356870081443E89EC
:1057940094A398B385048907B3C40408E39AC4FEA8
:1057A4009386F5FF1306F5FF2696A296B3C6060860
:1057B40033460608313FB71700401387C70A85668A
:1057C40014C39387870B1307000898C38604A68520
:1057D4004A857D14813D65FC8320C11E0324811EFE
:1057E400B7170040056723ACE70A8324411E032949
:1057F400011E7D6182801306000F098E3346060860
:1058040095BF1303F00E6369A3001303701163655E
:10581400B30019C291C22DBF82802A8793068011DA
:105824001306000F8145014525B7797191450D4552
:1058340006D622D426D24AD04ECE0569EFE03FB137
:10584400130509189145EFE09FB0914537140040C6
:105854004145EFE0FFB79304840B23A02401930791
:1058640000089CC0130900109307C40C23A0240152
:10587400C14923A03701EFE09FE50545EFE03FEA8A
:105884001145EFE03FE7294597B0FF1FE78000C4CB
:105894009307C40A23A02701294597B0FF1FE78077
:1058A400E0C21305800723A0240197B0FF1FE780FF
:1058B400E0C11305A003DD3313055005F1331305CF
:1058C400200BE93BB71700339387C7C095453EC00B
:1058D4000A85930730035C825133130560037D3BD3
:1058E4001305000C55331305700B4D3B1305500382
:1058F400613B1305B00B5D33654579331305000C2B
:10590400713B1305C00249331305200C413B054587
:10591400A53B1305300C59334945BD331305400CE1
:10592400B53B130500028D331305600C853B3D45E3
:10593400A13B1305000D9D331305400AB133130534
:10594400100A99331305000E913B394697D501008F
:105954009385856A0A85EFD0DFE3B9450A85FD3969
:105964001305100E253B394697D501009385C5696B
:105974000A85EFD01FE2B9450A85CD31130510021F
:10598400313B4545213B1305800797B0FF1FE78056
:10599400E0B34D4521331305900209331305200369
:1059A4001304840D97B0FF1FE78040B22320340115
:1059B4002254B25092540259F24901454561B1BD95
:1059C4001376F60F1308F6F91378F80FE54863EF2A
:1059D4000801130636FB1376F60F17D801001308D7
:1059E400286733460621832F060019A8130636FDBF
:1059F4001376F60F1308D002938F019AE37FC8FC45
:105A04001306F00E636DA612130670116369B612C5
:105A140025710548232C81180946194433D6C70A31
:105A24003376060B33048602232E1118232A911889
:105A340023282119232631192324411923225119FA
:105A44001308000FB3088500634B180D93088011E9
:105A5400931436003368B62063C3080D014F014820
:105A640095438540131916009949214A0143B312FD
:105A7400E029BDA8BA88630C7E00B388CF0183CE29
:105A84000800BA88B3FE5E0063830E00B688930EE6
:105A9400081893DA88008A9E23805EE9930E180022
:105AA400B3CE0E08938E0E1893F8F80F8A9E2380B7
:105AB4001EE963F4F002930E2800B3CE0E08938E11
:105AC4000E188A9E23805EE9930E3800B3CE0E082A
